{
  "_format": "hh-sol-artifact-1",
  "contractName": "PerpetualProtocolReferrer",
  "sourceName": "contracts/PerpetualProtocolReferrer.sol",
  "abi": [
    {
      "anonymous": false,
      "inputs": [
        {
          "indexed": false,
          "internalType": "address",
          "name": "createdBy",
          "type": "address"
        },
        {
          "indexed": false,
          "internalType": "address",
          "name": "createdFor",
          "type": "address"
        },
        {
          "indexed": false,
          "internalType": "uint256",
          "name": "timestamp",
          "type": "uint256"
        },
        {
          "indexed": false,
          "internalType": "string",
          "name": "referralCode",
          "type": "string"
        }
      ],
      "name": "OnReferralCodeCreated",
      "type": "event"
    },
    {
      "anonymous": false,
      "inputs": [
        {
          "indexed": false,
          "internalType": "address",
          "name": "addr",
          "type": "address"
        },
        {
          "indexed": false,
          "internalType": "enum PerpetualProtocolReferrer.UpsertAction",
          "name": "action",
          "type": "uint8"
        },
        {
          "indexed": false,
          "internalType": "uint256",
          "name": "timestamp",
          "type": "uint256"
        },
        {
          "indexed": false,
          "internalType": "string",
          "name": "newReferralCode",
          "type": "string"
        },
        {
          "indexed": false,
          "internalType": "string",
          "name": "oldReferralCode",
          "type": "string"
        }
      ],
      "name": "OnReferralCodeUpserted",
      "type": "event"
    },
    {
      "anonymous": false,
      "inputs": [
        {
          "indexed": false,
          "internalType": "address",
          "name": "addr",
          "type": "address"
        },
        {
          "indexed": false,
          "internalType": "string",
          "name": "tier",
          "type": "string"
        }
      ],
      "name": "OnUncappedPartnerAssigned",
      "type": "event"
    },
    {
      "anonymous": false,
      "inputs": [
        {
          "indexed": false,
          "internalType": "address",
          "name": "addr",
          "type": "address"
        }
      ],
      "name": "OnUncappedPartnerRemoved",
      "type": "event"
    },
    {
      "anonymous": false,
      "inputs": [
        {
          "indexed": true,
          "internalType": "address",
          "name": "previousOwner",
          "type": "address"
        },
        {
          "indexed": true,
          "internalType": "address",
          "name": "newOwner",
          "type": "address"
        }
      ],
      "name": "OwnershipTransferred",
      "type": "event"
    },
    {
      "inputs": [
        {
          "internalType": "address[]",
          "name": "partnerAddresses",
          "type": "address[]"
        },
        {
          "internalType": "string[]",
          "name": "tiers",
          "type": "string[]"
        }
      ],
      "name": "_batchUpdateUncappedPartner",
      "outputs": [],
      "stateMutability": "nonpayable",
      "type": "function"
    },
    {
      "inputs": [
        {
          "internalType": "address",
          "name": "partnerAddress",
          "type": "address"
        },
        {
          "internalType": "string",
          "name": "referralCode",
          "type": "string"
        },
        {
          "internalType": "address[]",
          "name": "tradersToImport",
          "type": "address[]"
        }
      ],
      "name": "_importPartner",
      "outputs": [],
      "stateMutability": "nonpayable",
      "type": "function"
    },
    {
      "inputs": [
        {
          "internalType": "address",
          "name": "partnerAddress",
          "type": "address"
        }
      ],
      "name": "_removeUncappedPartner",
      "outputs": [],
      "stateMutability": "nonpayable",
      "type": "function"
    },
    {
      "inputs": [
        {
          "internalType": "address",
          "name": "partnerAddress",
          "type": "address"
        },
        {
          "internalType": "string",
          "name": "tier",
          "type": "string"
        }
      ],
      "name": "_upsertUncappedPartner",
      "outputs": [],
      "stateMutability": "nonpayable",
      "type": "function"
    },
    {
      "inputs": [],
      "name": "candidate",
      "outputs": [
        {
          "internalType": "address",
          "name": "",
          "type": "address"
        }
      ],
      "stateMutability": "view",
      "type": "function"
    },
    {
      "inputs": [
        {
          "internalType": "string",
          "name": "referralCode",
          "type": "string"
        }
      ],
      "name": "createReferralCode",
      "outputs": [],
      "stateMutability": "nonpayable",
      "type": "function"
    },
    {
      "inputs": [],
      "name": "getMyRefereeCode",
      "outputs": [
        {
          "internalType": "string",
          "name": "",
          "type": "string"
        }
      ],
      "stateMutability": "view",
      "type": "function"
    },
    {
      "inputs": [
        {
          "internalType": "address",
          "name": "partnerAddress",
          "type": "address"
        }
      ],
      "name": "getReferralCodeByPartnerAddress",
      "outputs": [
        {
          "internalType": "string",
          "name": "",
          "type": "string"
        }
      ],
      "stateMutability": "view",
      "type": "function"
    },
    {
      "inputs": [],
      "name": "init",
      "outputs": [],
      "stateMutability": "nonpayable",
      "type": "function"
    },
    {
      "inputs": [],
      "name": "owner",
      "outputs": [
        {
          "internalType": "address",
          "name": "",
          "type": "address"
        }
      ],
      "stateMutability": "view",
      "type": "function"
    },
    {
      "inputs": [
        {
          "internalType": "address",
          "name": "",
          "type": "address"
        }
      ],
      "name": "partners",
      "outputs": [
        {
          "internalType": "uint256",
          "name": "createdAt",
          "type": "uint256"
        },
        {
          "internalType": "string",
          "name": "referralCode",
          "type": "string"
        },
        {
          "internalType": "address",
          "name": "createdBy",
          "type": "address"
        }
      ],
      "stateMutability": "view",
      "type": "function"
    },
    {
      "inputs": [
        {
          "internalType": "string",
          "name": "",
          "type": "string"
        }
      ],
      "name": "referralCodeToPartnerMap",
      "outputs": [
        {
          "internalType": "address",
          "name": "",
          "type": "address"
        }
      ],
      "stateMutability": "view",
      "type": "function"
    },
    {
      "inputs": [],
      "name": "renounceOwnership",
      "outputs": [],
      "stateMutability": "nonpayable",
      "type": "function"
    },
    {
      "inputs": [
        {
          "internalType": "address",
          "name": "newOwner",
          "type": "address"
        }
      ],
      "name": "setOwner",
      "outputs": [],
      "stateMutability": "nonpayable",
      "type": "function"
    },
    {
      "inputs": [
        {
          "internalType": "string",
          "name": "referralCode",
          "type": "string"
        }
      ],
      "name": "setReferralCode",
      "outputs": [],
      "stateMutability": "nonpayable",
      "type": "function"
    },
    {
      "inputs": [
        {
          "internalType": "address",
          "name": "",
          "type": "address"
        }
      ],
      "name": "traders",
      "outputs": [
        {
          "internalType": "string",
          "name": "referralCode",
          "type": "string"
        },
        {
          "internalType": "uint256",
          "name": "createdAt",
          "type": "uint256"
        },
        {
          "internalType": "uint256",
          "name": "updatedAt",
          "type": "uint256"
        }
      ],
      "stateMutability": "view",
      "type": "function"
    },
    {
      "inputs": [
        {
          "internalType": "address",
          "name": "",
          "type": "address"
        }
      ],
      "name": "uncappedPartners",
      "outputs": [
        {
          "internalType": "string",
          "name": "",
          "type": "string"
        }
      ],
      "stateMutability": "view",
      "type": "function"
    },
    {
      "inputs": [],
      "name": "updateOwner",
      "outputs": [],
      "stateMutability": "nonpayable",
      "type": "function"
    }
  ],
  "bytecode": "0x608060405234801561001057600080fd5b50613bd0806100206000396000f3fe608060405234801561001057600080fd5b50600436106101165760003560e01c80638da5cb5b116100a2578063bc5920ba11610071578063bc5920ba146102bb578063d9b503aa146102c5578063d9f4a2fd146102e1578063e1c7392a14610311578063f34f8fb31461031b57610116565b80638da5cb5b1461021d57806392a88fa21461023b57806395c336521461026d578063a3e3dc841461029f57610116565b80633e0183d1116100e95780633e0183d11461018d5780636c8381f8146101a9578063715018a6146101c75780637b4b71e4146101d157806386ec3e3d1461020157610116565b80630ff70c3f1461011b57806313af403514610139578063220659cd1461015557806336c08bb914610171575b600080fd5b61012361034b565b6040516101309190613723565b60405180910390f35b610153600480360381019061014e9190612e47565b6104a4565b005b61016f600480360381019061016a9190612e70565b6107c2565b005b61018b60048036038101906101869190612f51565b610b4f565b005b6101a760048036038101906101a29190612fc6565b610d39565b005b6101b1610d48565b6040516101be9190613625565b60405180910390f35b6101cf610d72565b005b6101eb60048036038101906101e69190612e47565b610f24565b6040516101f89190613723565b60405180910390f35b61021b60048036038101906102169190612fc6565b6110cb565b005b6102256110e0565b6040516102329190613625565b60405180910390f35b61025560048036038101906102509190612e47565b61110a565b60405161026493929190613745565b60405180910390f35b61028760048036038101906102829190612e47565b6111cc565b60405161029693929190613963565b60405180910390f35b6102b960048036038101906102b49190612ec8565b6112ae565b005b6102c36113b6565b005b6102df60048036038101906102da9190612e47565b61168a565b005b6102fb60048036038101906102f69190612e47565b611ae8565b6040516103089190613723565b60405180910390f35b610319611b98565b005b6103356004803603810190610330919061300b565b611d09565b6040516103429190613625565b60405180910390f35b60606000606860003373ffffffffffffffffffffffffffffffffffffffff1673ffffffffffffffffffffffffffffffffffffffff168152602001908152602001600020604051806060016040529081600082018054600181600116156101000203166002900480601f0160208091040260200160405190810160405280929190818152602001828054600181600116156101000203166002900480156104325780601f1061040757610100808354040283529160200191610432565b820191906000526020600020905b81548152906001019060200180831161041557829003601f168201915b50505050508152602001600182015481526020016002820154815250509050600081600001515111610499576040517f08c379a000000000000000000000000000000000000000000000000000000000815260040161049090613923565b60405180910390fd5b806000015191505090565b6104ac611d52565b73ffffffffffffffffffffffffffffffffffffffff166104ca6110e0565b73ffffffffffffffffffffffffffffffffffffffff1614610553576040517f08c379a00000000000000000000000000000000000000000000000000000000081526004018080602001828103825260068152602001807f534f5f434e4f000000000000000000000000000000000000000000000000000081525060200191505060405180910390fd5b600073ffffffffffffffffffffffffffffffffffffffff168173ffffffffffffffffffffffffffffffffffffffff1614156105f6576040517f08c379a00000000000000000000000000000000000000000000000000000000081526004018080602001828103825260068152602001807f534f5f4e5730000000000000000000000000000000000000000000000000000081525060200191505060405180910390fd5b603360009054906101000a900473ffffffffffffffffffffffffffffffffffffffff1673ffffffffffffffffffffffffffffffffffffffff168173ffffffffffffffffffffffffffffffffffffffff1614156106ba576040517f08c379a00000000000000000000000000000000000000000000000000000000081526004018080602001828103825260068152602001807f534f5f53414f000000000000000000000000000000000000000000000000000081525060200191505060405180910390fd5b603460009054906101000a900473ffffffffffffffffffffffffffffffffffffffff1673ffffffffffffffffffffffffffffffffffffffff168173ffffffffffffffffffffffffffffffffffffffff16141561077e576040517f08c379a00000000000000000000000000000000000000000000000000000000081526004018080602001828103825260068152602001807f534f5f534143000000000000000000000000000000000000000000000000000081525060200191505060405180910390fd5b80603460006101000a81548173ffffffffffffffffffffffffffffffffffffffff021916908373ffffffffffffffffffffffffffffffffffffffff16021790555050565b6107ca611d52565b73ffffffffffffffffffffffffffffffffffffffff166107e86110e0565b73ffffffffffffffffffffffffffffffffffffffff1614610871576040517f08c379a00000000000000000000000000000000000000000000000000000000081526004018080602001828103825260068152602001807f534f5f434e4f000000000000000000000000000000000000000000000000000081525060200191505060405180910390fd5b600073ffffffffffffffffffffffffffffffffffffffff168373ffffffffffffffffffffffffffffffffffffffff1614156108e1576040517f08c379a00000000000000000000000000000000000000000000000000000000081526004016108d8906137c3565b60405180910390fd5b60008282905011610927576040517f08c379a000000000000000000000000000000000000000000000000000000000815260040161091e90613823565b60405180910390fd5b6000606760008573ffffffffffffffffffffffffffffffffffffffff1673ffffffffffffffffffffffffffffffffffffffff16815260200190815260200160002060405180606001604052908160008201548152602001600182018054600181600116156101000203166002900480601f016020809104026020016040519081016040528092919081815260200182805460018160011615610100020316600290048015610a165780601f106109eb57610100808354040283529160200191610a16565b820191906000526020600020905b8154815290600101906020018083116109f957829003601f168201915b505050505081526020016002820160009054906101000a900473ffffffffffffffffffffffffffffffffffffffff1673ffffffffffffffffffffffffffffffffffffffff1673ffffffffffffffffffffffffffffffffffffffff16815250509050600081602001515111610abf576040517f08c379a0000000000000000000000000000000000000000000000000000000008152600401610ab690613803565b60405180910390fd5b8282606a60008773ffffffffffffffffffffffffffffffffffffffff1673ffffffffffffffffffffffffffffffffffffffff1681526020019081526020016000209190610b0d929190612b6b565b507f425fb6637c3f26d6ac9b20f8b9a181d5f408cc66123e92e319557488a0858818848484604051610b41939291906136f1565b60405180910390a150505050565b610b57611d52565b73ffffffffffffffffffffffffffffffffffffffff16610b756110e0565b73ffffffffffffffffffffffffffffffffffffffff1614610bfe576040517f08c379a00000000000000000000000000000000000000000000000000000000081526004018080602001828103825260068152602001807f534f5f434e4f000000000000000000000000000000000000000000000000000081525060200191505060405180910390fd5b818190508484905014610c46576040517f08c379a0000000000000000000000000000000000000000000000000000000008152600401610c3d906137e3565b60405180910390fd5b60005b84849050811015610d32577f044852b2a670ade5407e78fb2863c51de9fcb96542a07186fe3aeda6bb8a116d838383818110610c8157fe5b9050602002810190610c9391906139a1565b604051610ca19291906135f3565b60405180910390201415610cdd57610cd8858583818110610cbe57fe5b9050602002016020810190610cd39190612e47565b61168a565b610d25565b610d24858583818110610cec57fe5b9050602002016020810190610d019190612e47565b848484818110610d0d57fe5b9050602002810190610d1f91906139a1565b6107c2565b5b8080600101915050610c49565b5050505050565b610d44338383611d5a565b5050565b6000603460009054906101000a900473ffffffffffffffffffffffffffffffffffffffff16905090565b610d7a611d52565b73ffffffffffffffffffffffffffffffffffffffff16610d986110e0565b73ffffffffffffffffffffffffffffffffffffffff1614610e21576040517f08c379a00000000000000000000000000000000000000000000000000000000081526004018080602001828103825260068152602001807f534f5f434e4f000000000000000000000000000000000000000000000000000081525060200191505060405180910390fd5b600073ffffffffffffffffffffffffffffffffffffffff16603360009054906101000a900473ffffffffffffffffffffffffffffffffffffffff1673ffffffffffffffffffffffffffffffffffffffff167f8be0079c531659141344cd1fd0a4f28419497f9722a3daafe3b4186f6b6457e060405160405180910390a36000603360006101000a81548173ffffffffffffffffffffffffffffffffffffffff021916908373ffffffffffffffffffffffffffffffffffffffff1602179055506000603460006101000a81548173ffffffffffffffffffffffffffffffffffffffff021916908373ffffffffffffffffffffffffffffffffffffffff160217905550565b60606000606760008473ffffffffffffffffffffffffffffffffffffffff1673ffffffffffffffffffffffffffffffffffffffff16815260200190815260200160002060405180606001604052908160008201548152602001600182018054600181600116156101000203166002900480601f0160208091040260200160405190810160405280929190818152602001828054600181600116156101000203166002900480156110155780601f10610fea57610100808354040283529160200191611015565b820191906000526020600020905b815481529060010190602001808311610ff857829003601f168201915b505050505081526020016002820160009054906101000a900473ffffffffffffffffffffffffffffffffffffffff1673ffffffffffffffffffffffffffffffffffffffff1673ffffffffffffffffffffffffffffffffffffffff168152505090506000816020015151116110be576040517f08c379a00000000000000000000000000000000000000000000000000000000081526004016110b590613783565b60405180910390fd5b8060200151915050919050565b60003390506110db838383612232565b505050565b6000603360009054906101000a900473ffffffffffffffffffffffffffffffffffffffff16905090565b6068602052806000526040600020600091509050806000018054600181600116156101000203166002900480601f0160208091040260200160405190810160405280929190818152602001828054600181600116156101000203166002900480156111b65780601f1061118b576101008083540402835291602001916111b6565b820191906000526020600020905b81548152906001019060200180831161119957829003601f168201915b5050505050908060010154908060020154905083565b6067602052806000526040600020600091509050806000015490806001018054600181600116156101000203166002900480601f01602080910402602001604051908101604052809291908181526020018280546001816001161561010002031660029004801561127e5780601f106112535761010080835404028352916020019161127e565b820191906000526020600020905b81548152906001019060200180831161126157829003601f168201915b5050505050908060020160009054906101000a900473ffffffffffffffffffffffffffffffffffffffff16905083565b6112b6611d52565b73ffffffffffffffffffffffffffffffffffffffff166112d46110e0565b73ffffffffffffffffffffffffffffffffffffffff161461135d576040517f08c379a00000000000000000000000000000000000000000000000000000000081526004018080602001828103825260068152602001807f534f5f434e4f000000000000000000000000000000000000000000000000000081525060200191505060405180910390fd5b611368858585611d5a565b60005b828290508110156113ae576113a1858585858581811061138757fe5b905060200201602081019061139c9190612e47565b612232565b808060010191505061136b565b505050505050565b600073ffffffffffffffffffffffffffffffffffffffff16603460009054906101000a900473ffffffffffffffffffffffffffffffffffffffff1673ffffffffffffffffffffffffffffffffffffffff16141561147b576040517f08c379a00000000000000000000000000000000000000000000000000000000081526004018080602001828103825260058152602001807f534f5f433000000000000000000000000000000000000000000000000000000081525060200191505060405180910390fd5b611483611d52565b73ffffffffffffffffffffffffffffffffffffffff16603460009054906101000a900473ffffffffffffffffffffffffffffffffffffffff1673ffffffffffffffffffffffffffffffffffffffff1614611545576040517f08c379a00000000000000000000000000000000000000000000000000000000081526004018080602001828103825260068152602001807f534f5f434e43000000000000000000000000000000000000000000000000000081525060200191505060405180910390fd5b603460009054906101000a900473ffffffffffffffffffffffffffffffffffffffff1673ffffffffffffffffffffffffffffffffffffffff16603360009054906101000a900473ffffffffffffffffffffffffffffffffffffffff1673ffffffffffffffffffffffffffffffffffffffff167f8be0079c531659141344cd1fd0a4f28419497f9722a3daafe3b4186f6b6457e060405160405180910390a3603460009054906101000a900473ffffffffffffffffffffffffffffffffffffffff16603360006101000a81548173ffffffffffffffffffffffffffffffffffffffff021916908373ffffffffffffffffffffffffffffffffffffffff1602179055506000603460006101000a81548173ffffffffffffffffffffffffffffffffffffffff021916908373ffffffffffffffffffffffffffffffffffffffff160217905550565b611692611d52565b73ffffffffffffffffffffffffffffffffffffffff166116b06110e0565b73ffffffffffffffffffffffffffffffffffffffff1614611739576040517f08c379a00000000000000000000000000000000000000000000000000000000081526004018080602001828103825260068152602001807f534f5f434e4f000000000000000000000000000000000000000000000000000081525060200191505060405180910390fd5b600073ffffffffffffffffffffffffffffffffffffffff168173ffffffffffffffffffffffffffffffffffffffff1614156117a9576040517f08c379a00000000000000000000000000000000000000000000000000000000081526004016117a0906137c3565b60405180910390fd5b6000606760008373ffffffffffffffffffffffffffffffffffffffff1673ffffffffffffffffffffffffffffffffffffffff16815260200190815260200160002060405180606001604052908160008201548152602001600182018054600181600116156101000203166002900480601f0160208091040260200160405190810160405280929190818152602001828054600181600116156101000203166002900480156118985780601f1061186d57610100808354040283529160200191611898565b820191906000526020600020905b81548152906001019060200180831161187b57829003601f168201915b505050505081526020016002820160009054906101000a900473ffffffffffffffffffffffffffffffffffffffff1673ffffffffffffffffffffffffffffffffffffffff1673ffffffffffffffffffffffffffffffffffffffff16815250509050600081602001515111611941576040517f08c379a000000000000000000000000000000000000000000000000000000000815260040161193890613803565b60405180910390fd5b6000606a60008473ffffffffffffffffffffffffffffffffffffffff1673ffffffffffffffffffffffffffffffffffffffff1681526020019081526020016000208054600181600116156101000203166002900480601f016020809104026020016040519081016040528092919081815260200182805460018160011615610100020316600290048015611a165780601f106119eb57610100808354040283529160200191611a16565b820191906000526020600020905b8154815290600101906020018083116119f957829003601f168201915b505050505090506000815111611a61576040517f08c379a0000000000000000000000000000000000000000000000000000000008152600401611a5890613943565b60405180910390fd5b606a60008473ffffffffffffffffffffffffffffffffffffffff1673ffffffffffffffffffffffffffffffffffffffff1681526020019081526020016000206000611aac9190612bf9565b7f62bd32200be8aaed8b62e1df9a3eb9b451ef47923f58520de897ec860ab922c783604051611adb9190613625565b60405180910390a1505050565b606a6020528060005260406000206000915090508054600181600116156101000203166002900480601f016020809104026020016040519081016040528092919081815260200182805460018160011615610100020316600290048015611b905780601f10611b6557610100808354040283529160200191611b90565b820191906000526020600020905b815481529060010190602001808311611b7357829003601f168201915b505050505081565b600060019054906101000a900460ff1680611bb75750611bb6612794565b5b80611bcd575060008054906101000a900460ff16155b611c22576040517f08c379a000000000000000000000000000000000000000000000000000000000815260040180806020018281038252602e815260200180613b6d602e913960400191505060405180910390fd5b60008060019054906101000a900460ff161590508015611c72576001600060016101000a81548160ff02191690831515021790555060016000806101000a81548160ff0219169083151502179055505b606b60009054906101000a900460ff1615611cc2576040517f08c379a0000000000000000000000000000000000000000000000000000000008152600401611cb9906138c3565b60405180910390fd5b6001606b60006101000a81548160ff021916908315150217905550611ce56127a5565b8015611d065760008060016101000a81548160ff0219169083151502179055505b50565b6069818051602081018201805184825260208301602085012081835280955050505050506000915054906101000a900473ffffffffffffffffffffffffffffffffffffffff1681565b600033905090565b60003390506000429050600060698585604051611d7892919061360c565b908152602001604051809103902060009054906101000a900473ffffffffffffffffffffffffffffffffffffffff1690506000606760008873ffffffffffffffffffffffffffffffffffffffff1673ffffffffffffffffffffffffffffffffffffffff16815260200190815260200160002060405180606001604052908160008201548152602001600182018054600181600116156101000203166002900480601f016020809104026020016040519081016040528092919081815260200182805460018160011615610100020316600290048015611e985780601f10611e6d57610100808354040283529160200191611e98565b820191906000526020600020905b815481529060010190602001808311611e7b57829003601f168201915b505050505081526020016002820160009054906101000a900473ffffffffffffffffffffffffffffffffffffffff1673ffffffffffffffffffffffffffffffffffffffff1673ffffffffffffffffffffffffffffffffffffffff1681525050905060008686905011611f3f576040517f08c379a0000000000000000000000000000000000000000000000000000000008152600401611f3690613843565b60405180910390fd5b600073ffffffffffffffffffffffffffffffffffffffff168773ffffffffffffffffffffffffffffffffffffffff161415611faf576040517f08c379a0000000000000000000000000000000000000000000000000000000008152600401611fa6906138e3565b60405180910390fd5b600073ffffffffffffffffffffffffffffffffffffffff168273ffffffffffffffffffffffffffffffffffffffff161461201e576040517f08c379a000000000000000000000000000000000000000000000000000000000815260040161201590613863565b60405180910390fd5b600081602001515114612066576040517f08c379a000000000000000000000000000000000000000000000000000000000815260040161205d90613903565b60405180910390fd5b604051806060016040528084815260200187878080601f016020809104026020016040519081016040528093929190818152602001838380828437600081840152601f19601f8201169050808301925050505050505081526020018573ffffffffffffffffffffffffffffffffffffffff16815250606760008973ffffffffffffffffffffffffffffffffffffffff1673ffffffffffffffffffffffffffffffffffffffff168152602001908152602001600020600082015181600001556020820151816001019080519060200190612140929190612c41565b5060408201518160020160006101000a81548173ffffffffffffffffffffffffffffffffffffffff021916908373ffffffffffffffffffffffffffffffffffffffff160217905550905050866069878760405161219e92919061360c565b908152602001604051809103902060006101000a81548173ffffffffffffffffffffffffffffffffffffffff021916908373ffffffffffffffffffffffffffffffffffffffff1602179055507f8bc8d121b8c9f3642edf26b770b152ebb57ddd2a300931883b0b9b5480fdb0198488858989604051612221959493929190613640565b60405180910390a150505050505050565b60006069848460405161224692919061360c565b908152602001604051809103902060009054906101000a900473ffffffffffffffffffffffffffffffffffffffff169050600042905060008086868080601f016020809104026020016040519081016040528093929190818152602001838380828437600081840152601f19601f8201169050808301925050505050505090508473ffffffffffffffffffffffffffffffffffffffff168473ffffffffffffffffffffffffffffffffffffffff161415612335576040517f08c379a000000000000000000000000000000000000000000000000000000000815260040161232c906137a3565b60405180910390fd5b6000606860008773ffffffffffffffffffffffffffffffffffffffff1673ffffffffffffffffffffffffffffffffffffffff16815260200190815260200160002090506000888890501480156123a35750600081600001805460018160011615610100020316600290049050145b156123e3576040517f08c379a00000000000000000000000000000000000000000000000000000000081526004016123da90613883565b60405180910390fd5b600088889050111561262157600073ffffffffffffffffffffffffffffffffffffffff168573ffffffffffffffffffffffffffffffffffffffff16141561245f576040517f08c379a0000000000000000000000000000000000000000000000000000000008152600401612456906138a3565b60405180910390fd5b600081600001805460018160011615610100020316600290049050111561254557806000018054600181600116156101000203166002900480601f0160208091040260200160405190810160405280929190818152602001828054600181600116156101000203166002900480156125185780601f106124ed57610100808354040283529160200191612518565b820191906000526020600020905b8154815290600101906020018083116124fb57829003601f168201915b505050505091508787826000019190612532929190612b6b565b508381600201819055506002925061261c565b604051806060016040528089898080601f016020809104026020016040519081016040528093929190818152602001838380828437600081840152601f19601f82011690508083019250505050505050815260200185815260200185815250606860008873ffffffffffffffffffffffffffffffffffffffff1673ffffffffffffffffffffffffffffffffffffffff16815260200190815260200160002060008201518160000190805190602001906125ff929190612c41565b506020820151816001015560408201518160020155905050600092505b612749565b600081600001805460018160011615610100020316600290049050111561274857806000018054600181600116156101000203166002900480601f0160208091040260200160405190810160405280929190818152602001828054600181600116156101000203166002900480156126da5780601f106126af576101008083540402835291602001916126da565b820191906000526020600020905b8154815290600101906020018083116126bd57829003601f168201915b50505050509150606860008773ffffffffffffffffffffffffffffffffffffffff1673ffffffffffffffffffffffffffffffffffffffff168152602001908152602001600020600080820160006127319190612bf9565b600182016000905560028201600090555050600192505b5b7fb376c1e68d2c47f1008983c8be34fb3c06dc025e656b58729e5b66d17c1070898684868b8b876040516127829695949392919061368e565b60405180910390a15050505050505050565b600061279f30612954565b15905090565b600060019054906101000a900460ff16806127c457506127c3612794565b5b806127da575060008054906101000a900460ff16155b61282f576040517f08c379a000000000000000000000000000000000000000000000000000000000815260040180806020018281038252602e815260200180613b6d602e913960400191505060405180910390fd5b60008060019054906101000a900460ff16159050801561287f576001600060016101000a81548160ff02191690831515021790555060016000806101000a81548160ff0219169083151502179055505b612887612967565b6000612891611d52565b905080603360006101000a81548173ffffffffffffffffffffffffffffffffffffffff021916908373ffffffffffffffffffffffffffffffffffffffff1602179055508073ffffffffffffffffffffffffffffffffffffffff16600073ffffffffffffffffffffffffffffffffffffffff167f8be0079c531659141344cd1fd0a4f28419497f9722a3daafe3b4186f6b6457e060405160405180910390a35080156129515760008060016101000a81548160ff0219169083151502179055505b50565b600080823b905060008111915050919050565b600060019054906101000a900460ff16806129865750612985612794565b5b8061299c575060008054906101000a900460ff16155b6129f1576040517f08c379a000000000000000000000000000000000000000000000000000000000815260040180806020018281038252602e815260200180613b6d602e913960400191505060405180910390fd5b60008060019054906101000a900460ff161590508015612a41576001600060016101000a81548160ff02191690831515021790555060016000806101000a81548160ff0219169083151502179055505b612a49612a6d565b8015612a6a5760008060016101000a81548160ff0219169083151502179055505b50565b600060019054906101000a900460ff1680612a8c5750612a8b612794565b5b80612aa2575060008054906101000a900460ff16155b612af7576040517f08c379a000000000000000000000000000000000000000000000000000000000815260040180806020018281038252602e815260200180613b6d602e913960400191505060405180910390fd5b60008060019054906101000a900460ff161590508015612b47576001600060016101000a81548160ff02191690831515021790555060016000806101000a81548160ff0219169083151502179055505b8015612b685760008060016101000a81548160ff0219169083151502179055505b50565b828054600181600116156101000203166002900490600052602060002090601f016020900481019282612ba15760008555612be8565b82601f10612bba57803560ff1916838001178555612be8565b82800160010185558215612be8579182015b82811115612be7578235825591602001919060010190612bcc565b5b509050612bf59190612ccf565b5090565b50805460018160011615610100020316600290046000825580601f10612c1f5750612c3e565b601f016020900490600052602060002090810190612c3d9190612ccf565b5b50565b828054600181600116156101000203166002900490600052602060002090601f016020900481019282612c775760008555612cbe565b82601f10612c9057805160ff1916838001178555612cbe565b82800160010185558215612cbe579182015b82811115612cbd578251825591602001919060010190612ca2565b5b509050612ccb9190612ccf565b5090565b5b80821115612ce8576000816000905550600101612cd0565b5090565b6000612cff612cfa84613a29565b6139f8565b905082815260208101848484011115612d1757600080fd5b612d22848285613aec565b509392505050565b600081359050612d3981613b55565b92915050565b60008083601f840112612d5157600080fd5b8235905067ffffffffffffffff811115612d6a57600080fd5b602083019150836020820283011115612d8257600080fd5b9250929050565b60008083601f840112612d9b57600080fd5b8235905067ffffffffffffffff811115612db457600080fd5b602083019150836020820283011115612dcc57600080fd5b9250929050565b60008083601f840112612de557600080fd5b8235905067ffffffffffffffff811115612dfe57600080fd5b602083019150836001820283011115612e1657600080fd5b9250929050565b600082601f830112612e2e57600080fd5b8135612e3e848260208601612cec565b91505092915050565b600060208284031215612e5957600080fd5b6000612e6784828501612d2a565b91505092915050565b600080600060408486031215612e8557600080fd5b6000612e9386828701612d2a565b935050602084013567ffffffffffffffff811115612eb057600080fd5b612ebc86828701612dd3565b92509250509250925092565b600080600080600060608688031215612ee057600080fd5b6000612eee88828901612d2a565b955050602086013567ffffffffffffffff811115612f0b57600080fd5b612f1788828901612dd3565b9450945050604086013567ffffffffffffffff811115612f3657600080fd5b612f4288828901612d3f565b92509250509295509295909350565b60008060008060408587031215612f6757600080fd5b600085013567ffffffffffffffff811115612f8157600080fd5b612f8d87828801612d3f565b9450945050602085013567ffffffffffffffff811115612fac57600080fd5b612fb887828801612d89565b925092505092959194509250565b60008060208385031215612fd957600080fd5b600083013567ffffffffffffffff811115612ff357600080fd5b612fff85828601612dd3565b92509250509250929050565b60006020828403121561301d57600080fd5b600082013567ffffffffffffffff81111561303757600080fd5b61304384828501612e1d565b91505092915050565b61305581613a8b565b82525050565b60006130678385613a64565b9350613074838584613aec565b82840190509392505050565b61308981613ada565b82525050565b600061309b8385613a6f565b93506130a8838584613aec565b6130b183613b30565b840190509392505050565b60006130c88385613a80565b93506130d5838584613aec565b82840190509392505050565b60006130ec82613a59565b6130f68185613a6f565b9350613106818560208601613afb565b61310f81613b30565b840191505092915050565b6000613127601b83613a6f565b91507f526566657272616c20636f646520646f65736e277420657869737400000000006000830152602082019050919050565b6000613167603283613a6f565b91507f596f752063616e6e6f7420626520612072656665726565206f6620612072656660008301527f657272616c20636f646520796f75206f776e00000000000000000000000000006020830152604082019050919050565b60006131cd601283613a6f565b91507f50726f7669646520616e206164647265737300000000000000000000000000006000830152602082019050919050565b600061320d602a83613a6f565b91507f506172746e6572206c69737420616e642074696572206c69737420617265206d60008301527f6973746d617463686564000000000000000000000000000000000000000000006020830152604082019050919050565b6000613273601683613a6f565b91507f506172746e657220646f6573206e6f74206578697374000000000000000000006000830152602082019050919050565b60006132b3600e83613a6f565b91507f50726f76696465206120746965720000000000000000000000000000000000006000830152602082019050919050565b60006132f3601883613a6f565b91507f50726f76696465206120726566657272616c20636f64652e00000000000000006000830152602082019050919050565b6000613333603b83613a6f565b91507f5468697320726566657272616c20636f64652068617320616c7265616479206260008301527f65656e2061737369676e656420746f20616e20616464726573732e00000000006020830152604082019050919050565b6000613399602783613a6f565b91507f4e6f20726566657272616c20636f64652077617320737570706c696564206f7260008301527f20666f756e642e000000000000000000000000000000000000000000000000006020830152604082019050919050565b60006133ff601c83613a6f565b91507f526566657272616c20636f646520646f6573206e6f74206578697374000000006000830152602082019050919050565b600061343f602e83613a6f565b91507f436f6e747261637420696e7374616e63652068617320616c726561647920626560008301527f656e20696e697469616c697a65640000000000000000000000000000000000006020830152604082019050919050565b60006134a5602a83613a6f565b91507f50726f7669646520616e206164647265737320746f206372656174652074686560008301527f20636f646520666f722e000000000000000000000000000000000000000000006020830152604082019050919050565b600061350b603283613a6f565b91507f54686973206164647265737320616c726561647920686173206120726566657260008301527f72616c20636f64652061737369676e65642e00000000000000000000000000006020830152604082019050919050565b6000613571601f83613a6f565b91507f596f7520646f206e6f742068617665206120726566657272616c20636f6465006000830152602082019050919050565b60006135b1601783613a6f565b91507f506172746e6572206973206e6f7420756e6361707065640000000000000000006000830152602082019050919050565b6135ed81613ad0565b82525050565b600061360082848661305b565b91508190509392505050565b60006136198284866130bc565b91508190509392505050565b600060208201905061363a600083018461304c565b92915050565b6000608082019050613655600083018861304c565b613662602083018761304c565b61366f60408301866135e4565b818103606083015261368281848661308f565b90509695505050505050565b600060a0820190506136a3600083018961304c565b6136b06020830188613080565b6136bd60408301876135e4565b81810360608301526136d081858761308f565b905081810360808301526136e481846130e1565b9050979650505050505050565b6000604082019050613706600083018661304c565b818103602083015261371981848661308f565b9050949350505050565b6000602082019050818103600083015261373d81846130e1565b905092915050565b6000606082019050818103600083015261375f81866130e1565b905061376e60208301856135e4565b61377b60408301846135e4565b949350505050565b6000602082019050818103600083015261379c8161311a565b9050919050565b600060208201905081810360008301526137bc8161315a565b9050919050565b600060208201905081810360008301526137dc816131c0565b9050919050565b600060208201905081810360008301526137fc81613200565b9050919050565b6000602082019050818103600083015261381c81613266565b9050919050565b6000602082019050818103600083015261383c816132a6565b9050919050565b6000602082019050818103600083015261385c816132e6565b9050919050565b6000602082019050818103600083015261387c81613326565b9050919050565b6000602082019050818103600083015261389c8161338c565b9050919050565b600060208201905081810360008301526138bc816133f2565b9050919050565b600060208201905081810360008301526138dc81613432565b9050919050565b600060208201905081810360008301526138fc81613498565b9050919050565b6000602082019050818103600083015261391c816134fe565b9050919050565b6000602082019050818103600083015261393c81613564565b9050919050565b6000602082019050818103600083015261395c816135a4565b9050919050565b600060608201905061397860008301866135e4565b818103602083015261398a81856130e1565b9050613999604083018461304c565b949350505050565b600080833560016020038436030381126139ba57600080fd5b80840192508235915067ffffffffffffffff8211156139d857600080fd5b6020830192506001820236038313156139f057600080fd5b509250929050565b6000604051905081810181811067ffffffffffffffff82111715613a1f57613a1e613b2e565b5b8060405250919050565b600067ffffffffffffffff821115613a4457613a43613b2e565b5b601f19601f8301169050602081019050919050565b600081519050919050565b600081905092915050565b600082825260208201905092915050565b600081905092915050565b6000613a9682613ab0565b9050919050565b6000819050613aab82613b41565b919050565b600073ffffffffffffffffffffffffffffffffffffffff82169050919050565b6000819050919050565b6000613ae582613a9d565b9050919050565b82818337600083830152505050565b60005b83811015613b19578082015181840152602081019050613afe565b83811115613b28576000848401525b50505050565bfe5b6000601f19601f8301169050919050565b60038110613b5257613b51613b2e565b5b50565b613b5e81613a8b565b8114613b6957600080fd5b5056fe496e697469616c697a61626c653a20636f6e747261637420697320616c726561647920696e697469616c697a6564a2646970667358221220cf31f01b3129e847beb8514f4c7acae6c50bc6828bf8196ac70583a63202e83c64736f6c63430007060033",
  "linkReferences": {},
  "deployedLinkReferences": {}
}